{
  "_format": "hh-sol-artifact-1",
  "contractName": "InnerCirclesLendingMarket",
  "sourceName": "contracts/InnerCirclesLendingMarket.sol",
  "abi": [
    {
      "inputs": [
        {
          "internalType": "address",
          "name": "_crcToken",
          "type": "address"
        }
      ],
      "stateMutability": "nonpayable",
      "type": "constructor"
    },
    {
      "inputs": [
        {
          "internalType": "address",
          "name": "target",
          "type": "address"
        }
      ],
      "name": "AddressEmptyCode",
      "type": "error"
    },
    {
      "inputs": [
        {
          "internalType": "address",
          "name": "account",
          "type": "address"
        }
      ],
      "name": "AddressInsufficientBalance",
      "type": "error"
    },
    {
      "inputs": [],
      "name": "FailedInnerCall",
      "type": "error"
    },
    {
      "inputs": [],
      "name": "InnerCirclesLendingMarket__AlreadyVouched",
      "type": "error"
    },
    {
      "inputs": [],
      "name": "InnerCirclesLendingMarket__CrowdfundingPeriodEnded",
      "type": "error"
    },
    {
      "inputs": [],
      "name": "InnerCirclesLendingMarket__GracePeriodNotEnded",
      "type": "error"
    },
    {
      "inputs": [],
      "name": "InnerCirclesLendingMarket__InsufficientBalance",
      "type": "error"
    },
    {
      "inputs": [],
      "name": "InnerCirclesLendingMarket__InsufficientVouchers",
      "type": "error"
    },
    {
      "inputs": [],
      "name": "InnerCirclesLendingMarket__InvalidAmount",
      "type": "error"
    },
    {
      "inputs": [],
      "name": "InnerCirclesLendingMarket__InvalidContributionAmount",
      "type": "error"
    },
    {
      "inputs": [],
      "name": "InnerCirclesLendingMarket__InvalidLoanState",
      "type": "error"
    },
    {
      "inputs": [],
      "name": "InnerCirclesLendingMarket__LoanAlreadyRepaid",
      "type": "error"
    },
    {
      "inputs": [],
      "name": "InnerCirclesLendingMarket__LoanDoesNotExist",
      "type": "error"
    },
    {
      "inputs": [],
      "name": "InnerCirclesLendingMarket__LoanNotFullyFunded",
      "type": "error"
    },
    {
      "inputs": [],
      "name": "InnerCirclesLendingMarket__LoanNotInDefault",
      "type": "error"
    },
    {
      "inputs": [],
      "name": "InnerCirclesLendingMarket__NotBorrower",
      "type": "error"
    },
    {
      "inputs": [],
      "name": "InnerCirclesLendingMarket__RepaymentPeriodNotReached",
      "type": "error"
    },
    {
      "inputs": [],
      "name": "InnerCirclesLendingMarket__TransferFailed",
      "type": "error"
    },
    {
      "inputs": [],
      "name": "InnerCirclesLendingMarket__VouchingPeriodEnded",
      "type": "error"
    },
    {
      "inputs": [
        {
          "internalType": "address",
          "name": "token",
          "type": "address"
        }
      ],
      "name": "SafeERC20FailedOperation",
      "type": "error"
    },
    {
      "anonymous": false,
      "inputs": [
        {
          "indexed": true,
          "internalType": "uint256",
          "name": "loanId",
          "type": "uint256"
        },
        {
          "indexed": true,
          "internalType": "address",
          "name": "lender",
          "type": "address"
        },
        {
          "indexed": false,
          "internalType": "uint256",
          "name": "amount",
          "type": "uint256"
        }
      ],
      "name": "Crowdfunded",
      "type": "event"
    },
    {
      "anonymous": false,
      "inputs": [
        {
          "indexed": true,
          "internalType": "uint256",
          "name": "loanId",
          "type": "uint256"
        },
        {
          "indexed": false,
          "internalType": "uint256",
          "name": "oldGracePeriod",
          "type": "uint256"
        },
        {
          "indexed": false,
          "internalType": "uint256",
          "name": "newGracePeriod",
          "type": "uint256"
        },
        {
          "indexed": true,
          "internalType": "address",
          "name": "modifiedBy",
          "type": "address"
        }
      ],
      "name": "GracePeriodModified",
      "type": "event"
    },
    {
      "anonymous": false,
      "inputs": [
        {
          "indexed": true,
          "internalType": "uint256",
          "name": "loanId",
          "type": "uint256"
        },
        {
          "indexed": false,
          "internalType": "uint256",
          "name": "voucherCount",
          "type": "uint256"
        },
        {
          "indexed": false,
          "internalType": "uint256",
          "name": "interestRate",
          "type": "uint256"
        }
      ],
      "name": "InterestRateCalculated",
      "type": "event"
    },
    {
      "anonymous": false,
      "inputs": [
        {
          "indexed": true,
          "internalType": "uint256",
          "name": "loanId",
          "type": "uint256"
        },
        {
          "indexed": true,
          "internalType": "address",
          "name": "borrower",
          "type": "address"
        }
      ],
      "name": "LoanConfirmed",
      "type": "event"
    },
    {
      "anonymous": false,
      "inputs": [
        {
          "indexed": true,
          "internalType": "uint256",
          "name": "loanId",
          "type": "uint256"
        },
        {
          "indexed": true,
          "internalType": "address",
          "name": "borrower",
          "type": "address"
        }
      ],
      "name": "LoanDefaulted",
      "type": "event"
    },
    {
      "anonymous": false,
      "inputs": [
        {
          "indexed": true,
          "internalType": "uint256",
          "name": "loanId",
          "type": "uint256"
        },
        {
          "indexed": false,
          "internalType": "uint256",
          "name": "totalAmount",
          "type": "uint256"
        }
      ],
      "name": "LoanFunded",
      "type": "event"
    },
    {
      "anonymous": false,
      "inputs": [
        {
          "indexed": true,
          "internalType": "uint256",
          "name": "loanId",
          "type": "uint256"
        }
      ],
      "name": "LoanRepaid",
      "type": "event"
    },
    {
      "anonymous": false,
      "inputs": [
        {
          "indexed": true,
          "internalType": "uint256",
          "name": "loanId",
          "type": "uint256"
        },
        {
          "indexed": true,
          "internalType": "address",
          "name": "borrower",
          "type": "address"
        },
        {
          "indexed": false,
          "internalType": "uint256",
          "name": "amount",
          "type": "uint256"
        },
        {
          "indexed": false,
          "internalType": "uint256",
          "name": "termDuration",
          "type": "uint256"
        }
      ],
      "name": "LoanRequestCreated",
      "type": "event"
    },
    {
      "anonymous": false,
      "inputs": [
        {
          "indexed": true,
          "internalType": "uint256",
          "name": "loanId",
          "type": "uint256"
        },
        {
          "indexed": true,
          "internalType": "address",
          "name": "borrower",
          "type": "address"
        }
      ],
      "name": "MembershipSuspended",
      "type": "event"
    },
    {
      "anonymous": false,
      "inputs": [
        {
          "indexed": true,
          "internalType": "uint256",
          "name": "loanId",
          "type": "uint256"
        },
        {
          "indexed": false,
          "internalType": "uint256",
          "name": "oldDeadline",
          "type": "uint256"
        },
        {
          "indexed": false,
          "internalType": "uint256",
          "name": "newDeadline",
          "type": "uint256"
        },
        {
          "indexed": true,
          "internalType": "address",
          "name": "modifiedBy",
          "type": "address"
        }
      ],
      "name": "RepaymentDeadlineModified",
      "type": "event"
    },
    {
      "anonymous": false,
      "inputs": [
        {
          "indexed": true,
          "internalType": "uint256",
          "name": "loanId",
          "type": "uint256"
        },
        {
          "indexed": true,
          "internalType": "address",
          "name": "borrower",
          "type": "address"
        },
        {
          "indexed": false,
          "internalType": "uint256",
          "name": "principal",
          "type": "uint256"
        },
        {
          "indexed": false,
          "internalType": "uint256",
          "name": "interest",
          "type": "uint256"
        },
        {
          "indexed": false,
          "internalType": "uint256",
          "name": "totalRepaid",
          "type": "uint256"
        }
      ],
      "name": "RepaymentMade",
      "type": "event"
    },
    {
      "anonymous": false,
      "inputs": [
        {
          "indexed": true,
          "internalType": "uint256",
          "name": "loanId",
          "type": "uint256"
        },
        {
          "indexed": false,
          "internalType": "uint256",
          "name": "oldDuration",
          "type": "uint256"
        },
        {
          "indexed": false,
          "internalType": "uint256",
          "name": "newDuration",
          "type": "uint256"
        },
        {
          "indexed": true,
          "internalType": "address",
          "name": "modifiedBy",
          "type": "address"
        }
      ],
      "name": "TermDurationModified",
      "type": "event"
    },
    {
      "anonymous": false,
      "inputs": [
        {
          "indexed": true,
          "internalType": "uint256",
          "name": "loanId",
          "type": "uint256"
        },
        {
          "indexed": true,
          "internalType": "address",
          "name": "borrower",
          "type": "address"
        }
      ],
      "name": "TrustRemovalRecommended",
      "type": "event"
    },
    {
      "anonymous": false,
      "inputs": [
        {
          "indexed": true,
          "internalType": "uint256",
          "name": "loanId",
          "type": "uint256"
        },
        {
          "indexed": true,
          "internalType": "address",
          "name": "voucher",
          "type": "address"
        },
        {
          "indexed": false,
          "internalType": "uint256",
          "name": "amount",
          "type": "uint256"
        }
      ],
      "name": "Vouched",
      "type": "event"
    },
    {
      "anonymous": false,
      "inputs": [
        {
          "indexed": true,
          "internalType": "uint256",
          "name": "loanId",
          "type": "uint256"
        },
        {
          "indexed": false,
          "internalType": "uint256",
          "name": "oldDeadline",
          "type": "uint256"
        },
        {
          "indexed": false,
          "internalType": "uint256",
          "name": "newDeadline",
          "type": "uint256"
        },
        {
          "indexed": true,
          "internalType": "address",
          "name": "modifiedBy",
          "type": "address"
        }
      ],
      "name": "VouchingDeadlineModified",
      "type": "event"
    },
    {
      "inputs": [],
      "name": "CONTRIBUTION_AMOUNT_1",
      "outputs": [
        {
          "internalType": "uint256",
          "name": "",
          "type": "uint256"
        }
      ],
      "stateMutability": "view",
      "type": "function"
    },
    {
      "inputs": [],
      "name": "CONTRIBUTION_AMOUNT_2",
      "outputs": [
        {
          "internalType": "uint256",
          "name": "",
          "type": "uint256"
        }
      ],
      "stateMutability": "view",
      "type": "function"
    },
    {
      "inputs": [],
      "name": "CONTRIBUTION_AMOUNT_5",
      "outputs": [
        {
          "internalType": "uint256",
          "name": "",
          "type": "uint256"
        }
      ],
      "stateMutability": "view",
      "type": "function"
    },
    {
      "inputs": [],
      "name": "DEFAULT_GRACE_PERIOD",
      "outputs": [
        {
          "internalType": "uint256",
          "name": "",
          "type": "uint256"
        }
      ],
      "stateMutability": "view",
      "type": "function"
    },
    {
      "inputs": [],
      "name": "DEFAULT_TERM_DURATION",
      "outputs": [
        {
          "internalType": "uint256",
          "name": "",
          "type": "uint256"
        }
      ],
      "stateMutability": "view",
      "type": "function"
    },
    {
      "inputs": [],
      "name": "DEFAULT_VOUCHING_PERIOD",
      "outputs": [
        {
          "internalType": "uint256",
          "name": "",
          "type": "uint256"
        }
      ],
      "stateMutability": "view",
      "type": "function"
    },
    {
      "inputs": [],
      "name": "MIN_VOUCHERS",
      "outputs": [
        {
          "internalType": "uint256",
          "name": "",
          "type": "uint256"
        }
      ],
      "stateMutability": "view",
      "type": "function"
    },
    {
      "inputs": [],
      "name": "VOUCHER_AMOUNT",
      "outputs": [
        {
          "internalType": "uint256",
          "name": "",
          "type": "uint256"
        }
      ],
      "stateMutability": "view",
      "type": "function"
    },
    {
      "inputs": [
        {
          "internalType": "uint256",
          "name": "",
          "type": "uint256"
        }
      ],
      "name": "amountRepaid",
      "outputs": [
        {
          "internalType": "uint256",
          "name": "",
          "type": "uint256"
        }
      ],
      "stateMutability": "view",
      "type": "function"
    },
    {
      "inputs": [
        {
          "internalType": "uint256",
          "name": "voucherCount",
          "type": "uint256"
        }
      ],
      "name": "calculateInterestRate",
      "outputs": [
        {
          "internalType": "uint256",
          "name": "",
          "type": "uint256"
        }
      ],
      "stateMutability": "pure",
      "type": "function"
    },
    {
      "inputs": [
        {
          "internalType": "uint256",
          "name": "loanId",
          "type": "uint256"
        }
      ],
      "name": "calculateTotalOwed",
      "outputs": [
        {
          "internalType": "uint256",
          "name": "",
          "type": "uint256"
        }
      ],
      "stateMutability": "view",
      "type": "function"
    },
    {
      "inputs": [
        {
          "internalType": "uint256",
          "name": "loanId",
          "type": "uint256"
        }
      ],
      "name": "confirmLoanTerms",
      "outputs": [],
      "stateMutability": "nonpayable",
      "type": "function"
    },
    {
      "inputs": [
        {
          "internalType": "uint256",
          "name": "loanId",
          "type": "uint256"
        },
        {
          "internalType": "uint256",
          "name": "amount",
          "type": "uint256"
        }
      ],
      "name": "contributeToLoan",
      "outputs": [],
      "stateMutability": "nonpayable",
      "type": "function"
    },
    {
      "inputs": [],
      "name": "crcToken",
      "outputs": [
        {
          "internalType": "contract IERC20",
          "name": "",
          "type": "address"
        }
      ],
      "stateMutability": "view",
      "type": "function"
    },
    {
      "inputs": [
        {
          "internalType": "uint256",
          "name": "amountRequested",
          "type": "uint256"
        },
        {
          "internalType": "uint256",
          "name": "termDuration",
          "type": "uint256"
        }
      ],
      "name": "createLoanRequest",
      "outputs": [
        {
          "internalType": "uint256",
          "name": "loanId",
          "type": "uint256"
        }
      ],
      "stateMutability": "nonpayable",
      "type": "function"
    },
    {
      "inputs": [
        {
          "internalType": "uint256",
          "name": "loanId",
          "type": "uint256"
        }
      ],
      "name": "disburseLoan",
      "outputs": [],
      "stateMutability": "nonpayable",
      "type": "function"
    },
    {
      "inputs": [
        {
          "internalType": "uint256",
          "name": "loanId",
          "type": "uint256"
        },
        {
          "internalType": "address",
          "name": "lender",
          "type": "address"
        }
      ],
      "name": "getLenderContribution",
      "outputs": [
        {
          "internalType": "uint256",
          "name": "",
          "type": "uint256"
        }
      ],
      "stateMutability": "view",
      "type": "function"
    },
    {
      "inputs": [
        {
          "internalType": "uint256",
          "name": "loanId",
          "type": "uint256"
        }
      ],
      "name": "getLoan",
      "outputs": [
        {
          "components": [
            {
              "internalType": "address",
              "name": "borrower",
              "type": "address"
            },
            {
              "internalType": "uint256",
              "name": "amountRequested",
              "type": "uint256"
            },
            {
              "internalType": "uint256",
              "name": "amountFunded",
              "type": "uint256"
            },
            {
              "internalType": "uint256",
              "name": "termDuration",
              "type": "uint256"
            },
            {
              "internalType": "uint256",
              "name": "interestRate",
              "type": "uint256"
            },
            {
              "internalType": "uint256",
              "name": "createdAt",
              "type": "uint256"
            },
            {
              "internalType": "uint256",
              "name": "vouchingDeadline",
              "type": "uint256"
            },
            {
              "internalType": "uint256",
              "name": "crowdfundingDeadline",
              "type": "uint256"
            },
            {
              "internalType": "uint256",
              "name": "repaymentDeadline",
              "type": "uint256"
            },
            {
              "internalType": "uint256",
              "name": "gracePeriodEnd",
              "type": "uint256"
            },
            {
              "internalType": "enum InnerCirclesLendingMarket.LoanState",
              "name": "state",
              "type": "uint8"
            },
            {
              "internalType": "uint256",
              "name": "voucherCount",
              "type": "uint256"
            }
          ],
          "internalType": "struct InnerCirclesLendingMarket.Loan",
          "name": "",
          "type": "tuple"
        }
      ],
      "stateMutability": "view",
      "type": "function"
    },
    {
      "inputs": [
        {
          "internalType": "uint256",
          "name": "loanId",
          "type": "uint256"
        }
      ],
      "name": "getTotalContributions",
      "outputs": [
        {
          "internalType": "uint256",
          "name": "",
          "type": "uint256"
        }
      ],
      "stateMutability": "view",
      "type": "function"
    },
    {
      "inputs": [
        {
          "internalType": "uint256",
          "name": "loanId",
          "type": "uint256"
        }
      ],
      "name": "getVouchers",
      "outputs": [
        {
          "internalType": "address[]",
          "name": "",
          "type": "address[]"
        }
      ],
      "stateMutability": "view",
      "type": "function"
    },
    {
      "inputs": [
        {
          "internalType": "uint256",
          "name": "loanId",
          "type": "uint256"
        }
      ],
      "name": "isLoanInDefault",
      "outputs": [
        {
          "internalType": "bool",
          "name": "",
          "type": "bool"
        }
      ],
      "stateMutability": "view",
      "type": "function"
    },
    {
      "inputs": [
        {
          "internalType": "uint256",
          "name": "",
          "type": "uint256"
        },
        {
          "internalType": "address",
          "name": "",
          "type": "address"
        }
      ],
      "name": "isVoucher",
      "outputs": [
        {
          "internalType": "bool",
          "name": "",
          "type": "bool"
        }
      ],
      "stateMutability": "view",
      "type": "function"
    },
    {
      "inputs": [
        {
          "internalType": "uint256",
          "name": "",
          "type": "uint256"
        },
        {
          "internalType": "address",
          "name": "",
          "type": "address"
        }
      ],
      "name": "lenderContributions",
      "outputs": [
        {
          "internalType": "uint256",
          "name": "",
          "type": "uint256"
        }
      ],
      "stateMutability": "view",
      "type": "function"
    },
    {
      "inputs": [
        {
          "internalType": "uint256",
          "name": "",
          "type": "uint256"
        },
        {
          "internalType": "uint256",
          "name": "",
          "type": "uint256"
        }
      ],
      "name": "lenders",
      "outputs": [
        {
          "internalType": "address",
          "name": "",
          "type": "address"
        }
      ],
      "stateMutability": "view",
      "type": "function"
    },
    {
      "inputs": [
        {
          "internalType": "uint256",
          "name": "",
          "type": "uint256"
        }
      ],
      "name": "loans",
      "outputs": [
        {
          "internalType": "address",
          "name": "borrower",
          "type": "address"
        },
        {
          "internalType": "uint256",
          "name": "amountRequested",
          "type": "uint256"
        },
        {
          "internalType": "uint256",
          "name": "amountFunded",
          "type": "uint256"
        },
        {
          "internalType": "uint256",
          "name": "termDuration",
          "type": "uint256"
        },
        {
          "internalType": "uint256",
          "name": "interestRate",
          "type": "uint256"
        },
        {
          "internalType": "uint256",
          "name": "createdAt",
          "type": "uint256"
        },
        {
          "internalType": "uint256",
          "name": "vouchingDeadline",
          "type": "uint256"
        },
        {
          "internalType": "uint256",
          "name": "crowdfundingDeadline",
          "type": "uint256"
        },
        {
          "internalType": "uint256",
          "name": "repaymentDeadline",
          "type": "uint256"
        },
        {
          "internalType": "uint256",
          "name": "gracePeriodEnd",
          "type": "uint256"
        },
        {
          "internalType": "enum InnerCirclesLendingMarket.LoanState",
          "name": "state",
          "type": "uint8"
        },
        {
          "internalType": "uint256",
          "name": "voucherCount",
          "type": "uint256"
        }
      ],
      "stateMutability": "view",
      "type": "function"
    },
    {
      "inputs": [
        {
          "internalType": "uint256",
          "name": "loanId",
          "type": "uint256"
        }
      ],
      "name": "markLoanAsDefaulted",
      "outputs": [],
      "stateMutability": "nonpayable",
      "type": "function"
    },
    {
      "inputs": [
        {
          "internalType": "uint256",
          "name": "loanId",
          "type": "uint256"
        },
        {
          "internalType": "uint256",
          "name": "amount",
          "type": "uint256"
        }
      ],
      "name": "repayLoan",
      "outputs": [],
      "stateMutability": "nonpayable",
      "type": "function"
    },
    {
      "inputs": [
        {
          "internalType": "uint256",
          "name": "loanId",
          "type": "uint256"
        },
        {
          "internalType": "uint256",
          "name": "newGracePeriod",
          "type": "uint256"
        }
      ],
      "name": "setGracePeriod",
      "outputs": [],
      "stateMutability": "nonpayable",
      "type": "function"
    },
    {
      "inputs": [
        {
          "internalType": "uint256",
          "name": "loanId",
          "type": "uint256"
        },
        {
          "internalType": "uint256",
          "name": "newDeadline",
          "type": "uint256"
        }
      ],
      "name": "setRepaymentDeadline",
      "outputs": [],
      "stateMutability": "nonpayable",
      "type": "function"
    },
    {
      "inputs": [
        {
          "internalType": "uint256",
          "name": "loanId",
          "type": "uint256"
        },
        {
          "internalType": "uint256",
          "name": "newDuration",
          "type": "uint256"
        }
      ],
      "name": "setTermDuration",
      "outputs": [],
      "stateMutability": "nonpayable",
      "type": "function"
    },
    {
      "inputs": [
        {
          "internalType": "uint256",
          "name": "loanId",
          "type": "uint256"
        },
        {
          "internalType": "uint256",
          "name": "newDeadline",
          "type": "uint256"
        }
      ],
      "name": "setVouchingDeadline",
      "outputs": [],
      "stateMutability": "nonpayable",
      "type": "function"
    },
    {
      "inputs": [],
      "name": "totalLoans",
      "outputs": [
        {
          "internalType": "uint256",
          "name": "",
          "type": "uint256"
        }
      ],
      "stateMutability": "view",
      "type": "function"
    },
    {
      "inputs": [
        {
          "internalType": "uint256",
          "name": "loanId",
          "type": "uint256"
        }
      ],
      "name": "vouchForLoan",
      "outputs": [],
      "stateMutability": "nonpayable",
      "type": "function"
    },
    {
      "inputs": [
        {
          "internalType": "uint256",
          "name": "",
          "type": "uint256"
        },
        {
          "internalType": "uint256",
          "name": "",
          "type": "uint256"
        }
      ],
      "name": "vouchers",
      "outputs": [
        {
          "internalType": "address",
          "name": "",
          "type": "address"
        }
      ],
      "stateMutability": "view",
      "type": "function"
    }
  ],
  "bytecode": "0x60a0604052600160005534801561001557600080fd5b506040516128b33803806128b38339810160408190526100349161006c565b6001600160a01b03811661005b57604051630c3e42bd60e01b815260040160405180910390fd5b6001600160a01b031660805261009c565b60006020828403121561007e57600080fd5b81516001600160a01b038116811461009557600080fd5b9392505050565b6080516127d26100e1600039600081816103ea01528181610cc9015281816110e0015281816112230152818161188b01528181611fc7015261229901526127d26000f3fe608060405234801561001057600080fd5b50600436106102065760003560e01c8063a357ce9e1161011a578063ddbaa46b116100ad578063e549ef7a1161007c578063e549ef7a14610524578063ea605dc914610537578063ea88a0cf1461054a578063f2e4cfb714610559578063f86428bd1461056c57600080fd5b8063ddbaa46b14610462578063df634de814610475578063e1ec3c681461047d578063e2576d4f1461051157600080fd5b8063bc3a4e11116100e9578063bc3a4e1114610437578063c20c582a1461044a578063c781db821461044a578063cc952b571461045957600080fd5b8063a357ce9e146103bf578063a6e8107c146103d2578063b08eb4b9146103e5578063b73e4da01461042457600080fd5b806350c4fb3f1161019d5780637d4bc96b1161016c5780637d4bc96b146103105780638a700b531461033057806390d3b379146103435780639553354d146103565780639d35c0791461038157600080fd5b806350c4fb3f146102bc5780635bd1baaf146102c657806378eca214146102ea5780637bedc754146102fd57600080fd5b806338d9079b116101d957806338d9079b1461026a57806341b881111461027f5780634c49fab814610292578063504006ca1461029c57600080fd5b8063173620091461020b57806324ba25ce1461022857806329194ee314610248578063388276151461025b575b600080fd5b61021562278d0081565b6040519081526020015b60405180910390f35b61023b6102363660046124a6565b61057f565b60405161021f91906124bf565b6102156102563660046124a6565b6105eb565b610215674563918244f4000081565b61027d61027836600461250b565b610715565b005b61027d61028d3660046124a6565b6107d2565b61021562093a8081565b6102af6102aa3660046124a6565b610961565b60405161021f9190612565565b6102156202a30081565b6102156102d43660046124a6565b6000908152600260208190526040909120015490565b61027d6102f836600461250b565b610a37565b61027d61030b36600461250b565b610b31565b61021561031e3660046124a6565b60076020526000908152604090205481565b61027d61033e36600461250b565b610bf6565b6102156103513660046124a6565b610dfb565b6102156103643660046125f9565b600460209081526000928352604080842090915290825290205481565b6103af61038f3660046125f9565b600560209081526000928352604080842090915290825290205460ff1681565b604051901515815260200161021f565b6102156103cd3660046125f9565b610e75565b61027d6103e03660046124a6565b610e9f565b61040c7f000000000000000000000000000000000000000000000000000000000000000081565b6040516001600160a01b03909116815260200161021f565b61027d6104323660046124a6565b611009565b61027d6104453660046124a6565b611147565b610215670de0b6b3a764000081565b61021560015481565b61021561047036600461250b565b611344565b610215600381565b6104f961048b3660046124a6565b600260208190526000918252604090912080546001820154928201546003830154600484015460058501546006860154600787015460088801546009890154600a8a0154600b909a01546001600160a01b039099169a999798969795969495939492939192909160ff16908c565b60405161021f9c9b9a99989796959493929190612635565b61027d61051f36600461250b565b61152c565b6103af6105323660046124a6565b611602565b61027d61054536600461250b565b611745565b610215671bc16d674ec8000081565b61040c61056736600461250b565b611a27565b61040c61057a36600461250b565b611a5f565b6000818152600360209081526040918290208054835181840281018401909452808452606093928301828280156105df57602002820191906000526020600020905b81546001600160a01b031681526001909101906020018083116105c1575b50505050509050919050565b600081815260026020818152604080842081516101808101835281546001600160a01b031681526001820154938101939093529283015490820152600382015460608201526004820154608082015260058083015460a0830152600683015460c0830152600783015460e083015260088301546101008301526009830154610120830152600a83015484939161014084019160ff16908111156106905761069061252d565b60058111156106a1576106a161252d565b8152600b919091015460209091015280519091506001600160a01b03166106db57604051635714add560e01b815260040160405180910390fd5b60408101516080820151600090612710906106f690846126bd565b61070091906126d4565b905061070c81836126f6565b95945050505050565b600082815260026020526040902080546001600160a01b031661074b57604051635714add560e01b815260040160405180910390fd5b6001600a82015460ff1660058111156107665761076661252d565b14610784576040516331c5042f60e11b815260040160405180910390fd5b600681018054908390556040805182815260208101859052339186917f4303b58c7f63417f8323d3b0d75d01426aa0d32f32698a197625361b1ab2931291015b60405180910390a350505050565b600081815260026020526040902080546001600160a01b031661080857604051635714add560e01b815260040160405180910390fd5b6003600a82015460ff1660058111156108235761082361252d565b14610841576040516331c5042f60e11b815260040160405180910390fd5b8060090154421015610866576040516337a300ed60e11b815260040160405180910390fd5b6000610871836105eb565b60008481526007602052604090205490915081116108a2576040516363d25be960e11b815260040160405180910390fd5b600a8201805460ff1916600517905581546040516001600160a01b039091169084907f13b88e6866f0156d706fecfa22b678de5fc2b749c1d2307f6f47eb541385f1ec90600090a381546040516001600160a01b039091169084907feee7fc4813aa701f16b622f62a88a63a2aba0553aa2da43c2e62e7eedc839de090600090a381546040516001600160a01b039091169084907f0e307c6a6078bf9e52d1e52b4fd6baf1686835f0c9fe0235bde530f637fed76990600090a3505050565b61096961242b565b60008281526002602081815260409283902083516101808101855281546001600160a01b031681526001820154928101929092529182015492810192909252600381015460608301526004810154608083015260058082015460a0840152600682015460c0840152600782015460e084015260088201546101008401526009820154610120840152600a82015461014084019160ff90911690811115610a1157610a1161252d565b6005811115610a2257610a2261252d565b8152602001600b820154815250509050919050565b600082815260026020526040902080546001600160a01b0316610a6d57604051635714add560e01b815260040160405180910390fd5b6003600a82015460ff166005811115610a8857610a8861252d565b1480610aac57506004600a82015460ff166005811115610aaa57610aaa61252d565b145b80610acf57506005600a82015460ff166005811115610acd57610acd61252d565b145b15610aed576040516331c5042f60e11b815260040160405180910390fd5b600381018054908390556040805182815260208101859052339186917f6feeb6ebc63243562f71e0accb8ef24fe23015f4e118c9ef932f24fddeefe6db91016107c4565b600082815260026020526040902080546001600160a01b0316610b6757604051635714add560e01b815260040160405180910390fd5b6003600a82015460ff166005811115610b8257610b8261252d565b14610ba0576040516331c5042f60e11b815260040160405180910390fd5b60088101805490839055610bb762093a80846126f6565b60098301556040805182815260208101859052339186917fecebbcd1871fcf56fe7acc2d4e738b5bf1ac4d9b9cd8d98c86bc8af0b9c4352e91016107c4565b600082815260026020526040902080546001600160a01b0316610c2c57604051635714add560e01b815260040160405180910390fd5b6003600a82015460ff166005811115610c4757610c4761252d565b14610c65576040516331c5042f60e11b815260040160405180910390fd5b81600003610c8657604051630c3e42bd60e01b815260040160405180910390fd5b6000610c91846105eb565b60008581526007602052604081205491925090610cae9083612709565b905080841115610cbc578093505b610cf16001600160a01b037f000000000000000000000000000000000000000000000000000000000000000016333087611a7b565b610cfc858584611ae8565b5060008581526007602052604081208054869290610d1b9084906126f6565b909155505060028301546000908390610d3490876126bd565b610d3e91906126d4565b90506000610d4c8287612709565b600088815260076020908152604091829020548251868152918201849052818301529051919250339189917f1925feae58cf7aa6a70574859aab697cc68351d62dc2d3583f9c12c69453497d919081900360600190a36000878152600760205260409020548411610df257600a8501805460ff1916600417905560405187907f9a7851747cd7ffb3fe0a32caf3da48b31f27cebe131267051640f8b72fc4718690600090a25b50505050505050565b60006003821015610e0f5750600019919050565b60038210158015610e21575060068211155b15610e2f57506101f4919050565b60078210158015610e41575060098211155b15610e4e575060fa919050565b600a8210158015610e605750600f8211155b15610e6d57506064919050565b506000919050565b60008281526004602090815260408083206001600160a01b03851684529091529020545b92915050565b600081815260026020526040902080546001600160a01b0316610ed557604051635714add560e01b815260040160405180910390fd5b80546001600160a01b03163314610eff5760405163095f666560e31b815260040160405180910390fd5b6001600a82015460ff166005811115610f1a57610f1a61252d565b14610f38576040516331c5042f60e11b815260040160405180910390fd5b600381600b01541015610f5e57604051630d6706b560e11b815260040160405180910390fd5b6000610f6d82600b0154610dfb565b60048301819055600a8301805460ff191660021790559050610f926202a300426126f6565b6007830155600b820154604080519182526020820183905284917f74872b7c85e07afb4a060eb9f0e9d8347e061f6a13ce3e2ab005e895537b2ab6910160405180910390a2604051339084907f9d906cd8ef21c25a07a95566340a8077838c9afb09096a29d1b2b366585cdcd190600090a3505050565b600081815260026020526040902080546001600160a01b031661103f57604051635714add560e01b815260040160405180910390fd5b80546001600160a01b031633146110695760405163095f666560e31b815260040160405180910390fd5b6002600a82015460ff1660058111156110845761108461252d565b146110a2576040516331c5042f60e11b815260040160405180910390fd5b8060010154816002015410156110cb57604051631e70562f60e01b815260040160405180910390fd5b8054600182015461110a916001600160a01b037f0000000000000000000000000000000000000000000000000000000000000000811692911690611c27565b600a8101805460ff1916600390811790915581015461112990426126f6565b6008820181905561113e9062093a80906126f6565b60099091015550565b600081815260026020526040902080546001600160a01b031661117d57604051635714add560e01b815260040160405180910390fd5b6001600a82015460ff1660058111156111985761119861252d565b146111b6576040516331c5042f60e11b815260040160405180910390fd5b80600601544211156111db57604051635aa3e5df60e11b815260040160405180910390fd5b600082815260056020908152604080832033845290915290205460ff16156112165760405163035db30f60e61b815260040160405180910390fd5b6112536001600160a01b037f0000000000000000000000000000000000000000000000000000000000000000163330670de0b6b3a7640000611a7b565b60008281526003602090815260408083208054600181810183559185528385200180546001600160a01b03191633908117909155868552600584528285209085529092528220805460ff19169091179055600b82018054916112b48361271c565b9091555050600082815260046020908152604080832033808552908352818420670de0b6b3a7640000908190558685526006845282852080546001810182559086529484902090940180546001600160a01b0319168217905590519283529184917f224cbd431017c7127527d39ae6c430c243ee6c1144e06ccb08038eb612d6ecad910160405180910390a35050565b6000821580611351575081155b1561136f57604051630c3e42bd60e01b815260040160405180910390fd5b5060008054908190806113818361271c565b90915550600090506113966202a300426126f6565b9050604051806101800160405280336001600160a01b031681526020018581526020016000815260200184815260200160008152602001428152602001828152602001600081526020016000815260200160008152602001600160058111156114015761140161252d565b8152600060209182018190528481526002808352604091829020845181546001600160a01b0319166001600160a01b03909116178155928401516001808501919091559184015190830155606083015160038301556080830151600483015560a083015160058084019190915560c0840151600684015560e0840151600784015561010084015160088401556101208401516009840155610140840151600a840180549193909260ff199092169184908111156114c0576114c061252d565b02179055506101609190910151600b90910155600180549060006114e38361271c565b90915550506040805185815260208101859052339184917f8309e62b6b4d18281e275077da9f7c94e24a56bd48ca20f390d36b2943bbb845910160405180910390a35092915050565b600082815260026020526040902080546001600160a01b031661156257604051635714add560e01b815260040160405180910390fd5b6003600a82015460ff16600581111561157d5761157d61252d565b1461159b576040516331c5042f60e11b815260040160405180910390fd5b6000816008015482600901546115b19190612709565b90508282600801546115c391906126f6565b60098301556040805182815260208101859052339186917f4e3a64fe2f7d86327afda52709c0ed3982037665b433e2271de3c639317a292391016107c4565b600081815260026020818152604080842081516101808101835281546001600160a01b031681526001820154938101939093529283015490820152600382015460608201526004820154608082015260058083015460a0830152600683015460c0830152600783015460e083015260088301546101008301526009830154610120830152600a83015484939161014084019160ff16908111156116a7576116a761252d565b60058111156116b8576116b861252d565b8152600b919091015460209091015280519091506001600160a01b03166116e25750600092915050565b600381610140015160058111156116fb576116fb61252d565b146117095750600092915050565b80610120015142101561171f5750600092915050565b600061172a846105eb565b60009485526007602052604090942054939093109392505050565b600082815260026020526040902080546001600160a01b031661177b57604051635714add560e01b815260040160405180910390fd5b6002600a82015460ff1660058111156117965761179661252d565b146117b4576040516331c5042f60e11b815260040160405180910390fd5b80600701544211156117d95760405163fc4a69a160e01b815260040160405180910390fd5b670de0b6b3a764000082141580156117f95750671bc16d674ec800008214155b801561180d5750674563918244f400008214155b1561182b5760405163419720bd60e01b815260040160405180910390fd5b806001015481600201541061185357604051631e70562f60e01b815260040160405180910390fd5b6000816002015482600101546118699190612709565b9050600081841161187a578361187c565b815b90506118b36001600160a01b037f000000000000000000000000000000000000000000000000000000000000000016333084611a7b565b6000858152600460209081526040808320338452909152812080548392906118dc9084906126f6565b92505081905550808360020160008282546118f791906126f6565b9091555060009050805b60008781526006602052604090205481101561196557600087815260066020526040902080543391908390811061193a5761193a612735565b6000918252602090912001546001600160a01b03160361195d5760019150611965565b600101611901565b508061199a5760008681526006602090815260408220805460018101825590835291200180546001600160a01b031916331790555b604051828152339087907f0a9c2376899ce0c2eb1ab70a906e02926b2ac8704fefe9f1aa7a27e2de28af1f9060200160405180910390a38360010154846002015410611a1f57857fea9cce54fc29194e0a726c8d4d5462633f965462664714b80ce5c52d3f94b9608560020154604051611a1691815260200190565b60405180910390a25b505050505050565b60036020528160005260406000208181548110611a4357600080fd5b6000918252602090912001546001600160a01b03169150829050565b60066020528160005260406000208181548110611a4357600080fd5b6040516001600160a01b038481166024830152838116604483015260648201839052611ae29186918216906323b872dd906084015b604051602081830303815290604052915060e01b6020820180516001600160e01b038381831617835250505050611c5d565b50505050565b600083815260026020818152604080842081516101808101835281546001600160a01b031681526001820154938101939093529283015490820152600382015460608201526004820154608082015260058083015460a0830152600683015460c0830152600783015460e083015260088301546101008301526009830154610120830152600a83015484939161014084019160ff1690811115611b8d57611b8d61252d565b6005811115611b9e57611b9e61252d565b8152602001600b820154815250509050600061271082608001518360400151611bc791906126bd565b611bd191906126d4565b90508492506000611be187611cc5565b9050600081118015611bf35750600084115b15611c0857611c058785838589611da5565b93505b8315611c1d57611c1a87858488612021565b93505b5050509392505050565b6040516001600160a01b03838116602483015260448201839052611c5891859182169063a9059cbb90606401611ab0565b505050565b6000611c726001600160a01b038416836122f4565b90508051600014158015611c97575080806020019051810190611c95919061274b565b155b15611c5857604051635274afe760e01b81526001600160a01b03841660048201526024015b60405180910390fd5b6000805b600083815260066020526040902054811015611d9f57600083815260056020908152604080832060069092528220805491929184908110611d0c57611d0c612735565b60009182526020808320909101546001600160a01b0316835282019290925260400190205460ff16611d9757600083815260046020908152604080832060069092528220805491929184908110611d6557611d65612735565b60009182526020808320909101546001600160a01b03168352820192909252604001902054611d9490836126f6565b91505b600101611cc9565b50919050565b600085815260026020818152604080842081516101808101835281546001600160a01b031681526001820154938101939093529283015490820152600382015460608201526004820154608082015260058083015460a0830152600683015460c0830152600783015460e083015260088301546101008301526009830154610120830152600a83015484939161014084019160ff1690811115611e4a57611e4a61252d565b6005811115611e5b57611e5b61252d565b8152602001600b82015481525050905060005b60008881526006602052604090205481108015611e8b5750600087115b15612015576000888152600660205260408120805483908110611eb057611eb0612735565b60009182526020808320909101548b83526005825260408084206001600160a01b039092168085529190925291205490915060ff1615611ef05750612003565b60008981526004602090815260408083206001600160a01b03851684529091528082205490850151909190611f2589846126bd565b611f2f91906126d4565b90506000611f3d82846126f6565b60008d815260076020526040812054919250908990611f5c90846126bd565b611f6691906126d4565b90506000611f748284612709565b9050600081118015611f86575060008d115b15611ffc5760008c611f988f886126bd565b611fa291906126d4565b905081811115611faf5750805b8d811115611fba57508c5b611fee6001600160a01b037f0000000000000000000000000000000000000000000000000000000000000000168883611c27565b611ff8818f612709565b9d50505b5050505050505b8061200d8161271c565b915050611e6e565b50949695505050505050565b600084815260026020818152604080842081516101808101835281546001600160a01b031681526001820154938101939093529283015490820152600382015460608201526004820154608082015260058083015460a0830152600683015460c0830152600783015460e083015260088301546101008301526009830154610120830152600a83015484939161014084019160ff16908111156120c6576120c661252d565b60058111156120d7576120d761252d565b8152602001600b8201548152505090506000805b6000888152600360205260409020548110156121675760008881526004602090815260408083206003909252822080549192918490811061212e5761212e612735565b60009182526020808320909101546001600160a01b0316835282019290925260400190205461215d90836126f6565b91506001016120eb565b5080156122e95760005b6000888152600360205260409020548110801561218e5750600087115b156122e75760008881526003602052604081208054839081106121b3576121b3612735565b60009182526020808320909101548b83526004825260408084206001600160a01b039092168085529190925281832054918701519093509091906121f78a846126bd565b61220191906126d4565b9050600061220f82846126f6565b60008d815260076020526040812054919250908a9061222e90846126bd565b61223891906126d4565b905060006122468284612709565b9050600081118015612258575060008d115b156122ce5760008861226a8f886126bd565b61227491906126d4565b9050818111156122815750805b8d81111561228c57508c5b6122c06001600160a01b037f0000000000000000000000000000000000000000000000000000000000000000168883611c27565b6122ca818f612709565b9d50505b50505050505080806122df9061271c565b915050612171565b505b509395945050505050565b606061230283836000612309565b9392505050565b60608147101561232e5760405163cd78605960e01b8152306004820152602401611cbc565b600080856001600160a01b0316848660405161234a919061276d565b60006040518083038185875af1925050503d8060008114612387576040519150601f19603f3d011682016040523d82523d6000602084013e61238c565b606091505b509150915061239c8683836123a6565b9695505050505050565b6060826123bb576123b682612402565b612302565b81511580156123d257506001600160a01b0384163b155b156123fb57604051639996b31560e01b81526001600160a01b0385166004820152602401611cbc565b5080612302565b8051156124125780518082602001fd5b604051630a12f52160e11b815260040160405180910390fd5b60405180610180016040528060006001600160a01b03168152602001600081526020016000815260200160008152602001600081526020016000815260200160008152602001600081526020016000815260200160008152602001600060058111156124995761249961252d565b8152602001600081525090565b6000602082840312156124b857600080fd5b5035919050565b602080825282518282018190526000918401906040840190835b818110156125005783516001600160a01b03168352602093840193909201916001016124d9565b509095945050505050565b6000806040838503121561251e57600080fd5b50508035926020909101359150565b634e487b7160e01b600052602160045260246000fd5b6006811061256157634e487b7160e01b600052602160045260246000fd5b9052565b81516001600160a01b0316815261018081016020830151602083015260408301516040830152606083015160608301526080830151608083015260a083015160a083015260c083015160c083015260e083015160e08301526101008301516101008301526101208301516101208301526101408301516125e9610140840182612543565b5061016092830151919092015290565b6000806040838503121561260c57600080fd5b8235915060208301356001600160a01b038116811461262a57600080fd5b809150509250929050565b60006101808201905060018060a01b038e1682528c60208301528b60408301528a60608301528960808301528860a08301528760c08301528660e0830152856101008301528461012083015261268f610140830185612543565b826101608301529d9c50505050505050505050505050565b634e487b7160e01b600052601160045260246000fd5b8082028115828204841417610e9957610e996126a7565b6000826126f157634e487b7160e01b600052601260045260246000fd5b500490565b80820180821115610e9957610e996126a7565b81810381811115610e9957610e996126a7565b60006001820161272e5761272e6126a7565b5060010190565b634e487b7160e01b600052603260045260246000fd5b60006020828403121561275d57600080fd5b8151801515811461230257600080fd5b6000825160005b8181101561278e5760208186018101518583015201612774565b50600092019182525091905056fea2646970667358221220e6d119673141809a6da5622c2226d8236844c03cd2ada4410961fbd43a0c26e164736f6c634300081c0033",
  "linkReferences": {},
  "deployedLinkReferences": {}
}